{
  "_format": "hh-sol-artifact-1",
  "contractName": "ManufacturerVerifier",
  "sourceName": "contracts/ManufacturerVerifier.sol",
  "abi": [
    {
      "inputs": [
        {
          "internalType": "address",
          "name": "initialRegulator",
          "type": "address"
        }
      ],
      "stateMutability": "nonpayable",
      "type": "constructor"
    },
    {
      "inputs": [],
      "name": "AccessControlBadConfirmation",
      "type": "error"
    },
    {
      "inputs": [
        {
          "internalType": "address",
          "name": "account",
          "type": "address"
        },
        {
          "internalType": "bytes32",
          "name": "neededRole",
          "type": "bytes32"
        }
      ],
      "name": "AccessControlUnauthorizedAccount",
      "type": "error"
    },
    {
      "anonymous": false,
      "inputs": [
        {
          "indexed": false,
          "internalType": "address",
          "name": "manufacturer",
          "type": "address"
        }
      ],
      "name": "ManufacturerRevoked",
      "type": "event"
    },
    {
      "anonymous": false,
      "inputs": [
        {
          "indexed": false,
          "internalType": "address",
          "name": "manufacturer",
          "type": "address"
        }
      ],
      "name": "ManufacturerVerified",
      "type": "event"
    },
    {
      "anonymous": false,
      "inputs": [
        {
          "indexed": true,
          "internalType": "bytes32",
          "name": "role",
          "type": "bytes32"
        },
        {
          "indexed": true,
          "internalType": "bytes32",
          "name": "previousAdminRole",
          "type": "bytes32"
        },
        {
          "indexed": true,
          "internalType": "bytes32",
          "name": "newAdminRole",
          "type": "bytes32"
        }
      ],
      "name": "RoleAdminChanged",
      "type": "event"
    },
    {
      "anonymous": false,
      "inputs": [
        {
          "indexed": true,
          "internalType": "bytes32",
          "name": "role",
          "type": "bytes32"
        },
        {
          "indexed": true,
          "internalType": "address",
          "name": "account",
          "type": "address"
        },
        {
          "indexed": true,
          "internalType": "address",
          "name": "sender",
          "type": "address"
        }
      ],
      "name": "RoleGranted",
      "type": "event"
    },
    {
      "anonymous": false,
      "inputs": [
        {
          "indexed": true,
          "internalType": "bytes32",
          "name": "role",
          "type": "bytes32"
        },
        {
          "indexed": true,
          "internalType": "address",
          "name": "account",
          "type": "address"
        },
        {
          "indexed": true,
          "internalType": "address",
          "name": "sender",
          "type": "address"
        }
      ],
      "name": "RoleRevoked",
      "type": "event"
    },
    {
      "inputs": [],
      "name": "DEFAULT_ADMIN_ROLE",
      "outputs": [
        {
          "internalType": "bytes32",
          "name": "",
          "type": "bytes32"
        }
      ],
      "stateMutability": "view",
      "type": "function"
    },
    {
      "inputs": [],
      "name": "MANUFACTURER_ROLE",
      "outputs": [
        {
          "internalType": "bytes32",
          "name": "",
          "type": "bytes32"
        }
      ],
      "stateMutability": "view",
      "type": "function"
    },
    {
      "inputs": [],
      "name": "REGULATOR_ROLE",
      "outputs": [
        {
          "internalType": "bytes32",
          "name": "",
          "type": "bytes32"
        }
      ],
      "stateMutability": "view",
      "type": "function"
    },
    {
      "inputs": [
        {
          "internalType": "bytes32",
          "name": "role",
          "type": "bytes32"
        }
      ],
      "name": "getRoleAdmin",
      "outputs": [
        {
          "internalType": "bytes32",
          "name": "",
          "type": "bytes32"
        }
      ],
      "stateMutability": "view",
      "type": "function"
    },
    {
      "inputs": [
        {
          "internalType": "bytes32",
          "name": "role",
          "type": "bytes32"
        },
        {
          "internalType": "address",
          "name": "account",
          "type": "address"
        }
      ],
      "name": "grantRole",
      "outputs": [],
      "stateMutability": "nonpayable",
      "type": "function"
    },
    {
      "inputs": [
        {
          "internalType": "bytes32",
          "name": "role",
          "type": "bytes32"
        },
        {
          "internalType": "address",
          "name": "account",
          "type": "address"
        }
      ],
      "name": "hasRole",
      "outputs": [
        {
          "internalType": "bool",
          "name": "",
          "type": "bool"
        }
      ],
      "stateMutability": "view",
      "type": "function"
    },
    {
      "inputs": [
        {
          "internalType": "address",
          "name": "account",
          "type": "address"
        }
      ],
      "name": "isVerifiedManufacturer",
      "outputs": [
        {
          "internalType": "bool",
          "name": "",
          "type": "bool"
        }
      ],
      "stateMutability": "view",
      "type": "function"
    },
    {
      "inputs": [
        {
          "internalType": "bytes32",
          "name": "role",
          "type": "bytes32"
        },
        {
          "internalType": "address",
          "name": "callerConfirmation",
          "type": "address"
        }
      ],
      "name": "renounceRole",
      "outputs": [],
      "stateMutability": "nonpayable",
      "type": "function"
    },
    {
      "inputs": [
        {
          "internalType": "address",
          "name": "manufacturer",
          "type": "address"
        }
      ],
      "name": "revokeManufacturer",
      "outputs": [],
      "stateMutability": "nonpayable",
      "type": "function"
    },
    {
      "inputs": [
        {
          "internalType": "bytes32",
          "name": "role",
          "type": "bytes32"
        },
        {
          "internalType": "address",
          "name": "account",
          "type": "address"
        }
      ],
      "name": "revokeRole",
      "outputs": [],
      "stateMutability": "nonpayable",
      "type": "function"
    },
    {
      "inputs": [
        {
          "internalType": "bytes4",
          "name": "interfaceId",
          "type": "bytes4"
        }
      ],
      "name": "supportsInterface",
      "outputs": [
        {
          "internalType": "bool",
          "name": "",
          "type": "bool"
        }
      ],
      "stateMutability": "view",
      "type": "function"
    },
    {
      "inputs": [
        {
          "internalType": "address",
          "name": "",
          "type": "address"
        }
      ],
      "name": "verifiedManufacturers",
      "outputs": [
        {
          "internalType": "bool",
          "name": "",
          "type": "bool"
        }
      ],
      "stateMutability": "view",
      "type": "function"
    },
    {
      "inputs": [
        {
          "internalType": "address",
          "name": "manufacturer",
          "type": "address"
        }
      ],
      "name": "verifyManufacturer",
      "outputs": [],
      "stateMutability": "nonpayable",
      "type": "function"
    }
  ],
  "bytecode": "0x60806040523480156200001157600080fd5b5060405162000ffa38038062000ffa833981810160405281019062000037919062000266565b6200004c6000801b336200008760201b60201c565b506200007f7f20b5f7ac978e5d6199de06401411960dfa81d2f762655f6206bdc61d46fc19e6826200008760201b60201c565b505062000298565b60006200009b83836200018a60201b60201c565b6200017f57600160008085815260200190815260200160002060000160008473ffffffffffffffffffffffffffffffffffffffff1673ffffffffffffffffffffffffffffffffffffffff16815260200190815260200160002060006101000a81548160ff0219169083151502179055506200011b620001f460201b60201c565b73ffffffffffffffffffffffffffffffffffffffff168273ffffffffffffffffffffffffffffffffffffffff16847f2f8788117e7eff1d82e926ec794901d17c78024a50270940304540a733656f0d60405160405180910390a46001905062000184565b600090505b92915050565b600080600084815260200190815260200160002060000160008373ffffffffffffffffffffffffffffffffffffffff1673ffffffffffffffffffffffffffffffffffffffff16815260200190815260200160002060009054906101000a900460ff16905092915050565b600033905090565b600080fd5b600073ffffffffffffffffffffffffffffffffffffffff82169050919050565b60006200022e8262000201565b9050919050565b620002408162000221565b81146200024c57600080fd5b50565b600081519050620002608162000235565b92915050565b6000602082840312156200027f576200027e620001fc565b5b60006200028f848285016200024f565b91505092915050565b610d5280620002a86000396000f3fe608060405234801561001057600080fd5b50600436106100cf5760003560e01c806391d148541161008c578063c24beb3c11610066578063c24beb3c14610212578063c3533e4e14610242578063d547741f14610272578063d64a3d8b1461028e576100cf565b806391d14854146101a6578063965288b0146101d6578063a217fddf146101f4576100cf565b806301ffc9a7146100d4578063144bf5891461010457806318b4523814610122578063248a9ca31461013e5780632f2ff15d1461016e57806336568abe1461018a575b600080fd5b6100ee60048036038101906100e99190610a91565b6102aa565b6040516100fb9190610ad9565b60405180910390f35b61010c610324565b6040516101199190610b0d565b60405180910390f35b61013c60048036038101906101379190610b86565b610348565b005b61015860048036038101906101539190610bdf565b61046d565b6040516101659190610b0d565b60405180910390f35b61018860048036038101906101839190610c0c565b61048c565b005b6101a4600480360381019061019f9190610c0c565b6104ae565b005b6101c060048036038101906101bb9190610c0c565b610529565b6040516101cd9190610ad9565b60405180910390f35b6101de610593565b6040516101eb9190610b0d565b60405180910390f35b6101fc6105b7565b6040516102099190610b0d565b60405180910390f35b61022c60048036038101906102279190610b86565b6105be565b6040516102399190610ad9565b60405180910390f35b61025c60048036038101906102579190610b86565b6105de565b6040516102699190610ad9565b60405180910390f35b61028c60048036038101906102879190610c0c565b610634565b005b6102a860048036038101906102a39190610b86565b610656565b005b60007f7965db0b000000000000000000000000000000000000000000000000000000007bffffffffffffffffffffffffffffffffffffffffffffffffffffffff1916827bffffffffffffffffffffffffffffffffffffffffffffffffffffffff1916148061031d575061031c8261077a565b5b9050919050565b7f20b5f7ac978e5d6199de06401411960dfa81d2f762655f6206bdc61d46fc19e681565b6103727f20b5f7ac978e5d6199de06401411960dfa81d2f762655f6206bdc61d46fc19e633610529565b6103b1576040517f08c379a00000000000000000000000000000000000000000000000000000000081526004016103a890610ca9565b60405180910390fd5b6000600160008373ffffffffffffffffffffffffffffffffffffffff1673ffffffffffffffffffffffffffffffffffffffff16815260200190815260200160002060006101000a81548160ff0219169083151502179055506104337feefb95e842a3287179d933b4460be539a1d5af11aa8b325bb45c5c8dc92de4ed82610634565b7fd45d196334d0d06ea301cc8b965da9c0afd7dd9bd61ebcf127f0575c45e7b46b816040516104629190610cd8565b60405180910390a150565b6000806000838152602001908152602001600020600101549050919050565b6104958261046d565b61049e816107e4565b6104a883836107f8565b50505050565b6104b66108e9565b73ffffffffffffffffffffffffffffffffffffffff168173ffffffffffffffffffffffffffffffffffffffff161461051a576040517f6697b23200000000000000000000000000000000000000000000000000000000815260040160405180910390fd5b61052482826108f1565b505050565b600080600084815260200190815260200160002060000160008373ffffffffffffffffffffffffffffffffffffffff1673ffffffffffffffffffffffffffffffffffffffff16815260200190815260200160002060009054906101000a900460ff16905092915050565b7feefb95e842a3287179d933b4460be539a1d5af11aa8b325bb45c5c8dc92de4ed81565b6000801b81565b60016020528060005260406000206000915054906101000a900460ff1681565b6000600160008373ffffffffffffffffffffffffffffffffffffffff1673ffffffffffffffffffffffffffffffffffffffff16815260200190815260200160002060009054906101000a900460ff169050919050565b61063d8261046d565b610646816107e4565b61065083836108f1565b50505050565b6106807f20b5f7ac978e5d6199de06401411960dfa81d2f762655f6206bdc61d46fc19e633610529565b6106bf576040517f08c379a00000000000000000000000000000000000000000000000000000000081526004016106b690610ca9565b60405180910390fd5b60018060008373ffffffffffffffffffffffffffffffffffffffff1673ffffffffffffffffffffffffffffffffffffffff16815260200190815260200160002060006101000a81548160ff0219169083151502179055506107407feefb95e842a3287179d933b4460be539a1d5af11aa8b325bb45c5c8dc92de4ed8261048c565b7fcde2a9ca5eb4c24ecfcb6a38f2bc9aaa372c71e2a57e9acc551d6ddf832695998160405161076f9190610cd8565b60405180910390a150565b60007f01ffc9a7000000000000000000000000000000000000000000000000000000007bffffffffffffffffffffffffffffffffffffffffffffffffffffffff1916827bffffffffffffffffffffffffffffffffffffffffffffffffffffffff1916149050919050565b6107f5816107f06108e9565b6109e3565b50565b60006108048383610529565b6108de57600160008085815260200190815260200160002060000160008473ffffffffffffffffffffffffffffffffffffffff1673ffffffffffffffffffffffffffffffffffffffff16815260200190815260200160002060006101000a81548160ff02191690831515021790555061087b6108e9565b73ffffffffffffffffffffffffffffffffffffffff168273ffffffffffffffffffffffffffffffffffffffff16847f2f8788117e7eff1d82e926ec794901d17c78024a50270940304540a733656f0d60405160405180910390a4600190506108e3565b600090505b92915050565b600033905090565b60006108fd8383610529565b156109d857600080600085815260200190815260200160002060000160008473ffffffffffffffffffffffffffffffffffffffff1673ffffffffffffffffffffffffffffffffffffffff16815260200190815260200160002060006101000a81548160ff0219169083151502179055506109756108e9565b73ffffffffffffffffffffffffffffffffffffffff168273ffffffffffffffffffffffffffffffffffffffff16847ff6391f5c32d9c69d2a47ea670b442974b53935d1edc7fd64eb21e047a839171b60405160405180910390a4600190506109dd565b600090505b92915050565b6109ed8282610529565b610a305780826040517fe2517d3f000000000000000000000000000000000000000000000000000000008152600401610a27929190610cf3565b60405180910390fd5b5050565b600080fd5b60007fffffffff0000000000000000000000000000000000000000000000000000000082169050919050565b610a6e81610a39565b8114610a7957600080fd5b50565b600081359050610a8b81610a65565b92915050565b600060208284031215610aa757610aa6610a34565b5b6000610ab584828501610a7c565b91505092915050565b60008115159050919050565b610ad381610abe565b82525050565b6000602082019050610aee6000830184610aca565b92915050565b6000819050919050565b610b0781610af4565b82525050565b6000602082019050610b226000830184610afe565b92915050565b600073ffffffffffffffffffffffffffffffffffffffff82169050919050565b6000610b5382610b28565b9050919050565b610b6381610b48565b8114610b6e57600080fd5b50565b600081359050610b8081610b5a565b92915050565b600060208284031215610b9c57610b9b610a34565b5b6000610baa84828501610b71565b91505092915050565b610bbc81610af4565b8114610bc757600080fd5b50565b600081359050610bd981610bb3565b92915050565b600060208284031215610bf557610bf4610a34565b5b6000610c0384828501610bca565b91505092915050565b60008060408385031215610c2357610c22610a34565b5b6000610c3185828601610bca565b9250506020610c4285828601610b71565b9150509250929050565b600082825260208201905092915050565b7f43616c6c6572206973206e6f74206120726567756c61746f7200000000000000600082015250565b6000610c93601983610c4c565b9150610c9e82610c5d565b602082019050919050565b60006020820190508181036000830152610cc281610c86565b9050919050565b610cd281610b48565b82525050565b6000602082019050610ced6000830184610cc9565b92915050565b6000604082019050610d086000830185610cc9565b610d156020830184610afe565b939250505056fea2646970667358221220f155566bc37a5925ecd1ea5f36adb7b86bcf94f91ab0a506d804593e69f1303064736f6c63430008140033",
  "linkReferences": {},
  "deployedLinkReferences": {}
}